:020000040800F2
:100000000000022035190408791904080DE30308DB
:100010003DE303086DE303089DE3030800000000CF
:100020000000000000000000000000007919040832
:10003000791904080000000079190408A5E20308F2
:100040007919040879190408791904087919040838
:10005000791904087919040869CF03087DCF0308CA
:1000600091CF0308A5CF0308B9CF03087919040875
:100070007919040879190408791904087919040808
:10008000B9DC0308791904087919040879190408F6
:10009000791904087919040879190408CDCF0308DF
:1000A000791904087919040879190408FD0204086B
:1000B000B5E80308C9E80308DDE80308791904086E
:1000C00079190408791904087919040879190408B8
:1000D0007919040861F3030881F30308A1F3030805
:1000E00011D0030879190408791904081D030408BC
:1000F00079190408791904080D03040831DC030890
:100100007919040879190408F1E803087919040831
:10011000C1F30308E1F3030805E9030819E903083B
:100120007919040879190408791904087919040857
:100130007919040879190408791904087919040847
:100140007919040879190408791904085100040878
:1001500079190408791904087919040801F40308C5
:100160007919040879190408791904087919040817
:100170007919040879190408791904087919040807
:0801800079190408791904083B
:020000040802F0
:1000000042F65823C2F200031A780AB90120187088
:10001000704700BF42F65820C2F2000008B50368DE
:100020002BB140F20003C0F2000303B1984708BDB2
:100030001EB459F04FFB1EBC0DF0F6FC70B44C1E04
:10004000402C28D8DFE804F03A3A3A3A2727272705
:1000500036363A3636363636363636363627232371
:10006000232323233A3636363636273623213A27BA
:100070003A23232727363A3A3A3A3A3A3A3A363A3C
:1000800027273636362727273600002B25D0446908
:100090008569AC4202DB002070BC704704EB44066B
:1000A000056901344461B40028191EBF4260295516
:1000B0008360F1E7002AEAD11046EDE7D2F10104AE
:1000C00038BF0024002B08BF44F00104002CE2D10B
:1000D00044698569AC42DEDAE0E71846DCE700BF38
:1000E00030B443698469A34211DA046903EB430520
:1000F0000133436114EB850014BF00230123002961
:1001000008BF43F0010353B962B9104608E0012368
:100110000020002908BF43F00103002BF4D0002089
:1001200030BC7047037041608260F9E7F8B516464D
:10013000C26804460D46137813E04B2B34D1E760B8
:10014000236B002E0CBF19211C219A1D2263002253
:1001500020461346FFF772FF286020B3E268051DB2
:100160001378A3F17200A3F15607414241EB00015D
:10017000D7F1000C4CEB070050EA010702F1010730
:10018000DBD00132E26089B1236B0022002E0CBF6C
:1001900017211A212046093323631346FFF74EFF28
:1001A00028600028DAD105462846F8BD0028C7D0C7
:1001B000206B002E0CBF18211B2109302063C6E7DD
:1001C000C26803462DE9F0011078532803D00020BF
:1001D000BDE8F0017047501CD8605278002A68D101
:1001E0009868C0F3C00080F0010C00290CBF002407
:1001F0000CF001043CB1DC6821784339C8B2012815
:100200008CBF00200120742A00F0A0804CF22C0149
:10021000C0F6070191F81CC0944500F0958091F854
:100220003840944200F0998091F854C0944500F011
:10023000928091F87040944200F0968091F88CC0C2
:10024000944500F08F8091F8A8409442BFD1A83126
:100250004E69002E00F083805A699C69D1F818809D
:10026000A2426EDA02EB4207D3F810C001325A61A3
:10027000BF001CEB070505D06E601626C5F8088088
:100280000CF80760DD62002858D0CD680969186B4A
:100290009442084418639ADD02EB42001C69013263
:1002A0005A618300E01893D016224560E2548160C1
:1002B0008EE7A2F15F0CA2F13004DCF1000545EB02
:1002C0000C055FFA84FC0130D860BCF1090F8CBFCB
:1002D000284645F00100002848D05F2A2CD0002194
:1002E00001EBC10CE4B2A2F14106092C02EB8C0037
:1002F0000246F6B2A0F1300004D9192EA2F137005F
:100300003FF665AF814201463FF661AFDA68541CA3
:10031000127812B15F2ADC6002D0A2F13004DFE76C
:100320000130196A8842BFF452AFD9699A6A51F80C
:10033000200001329A624BE70020F2E74D6889689D
:10034000A5E70025DD629EE71C3181E74CF22C0118
:10035000C0F607017CE754317AE7383178E75A690B
:100360009C6990E78C3173E7703171E7A2F1410528
:10037000EDB2192D3FF634AF0146B1E738B50C4662
:100380000546002973D02378412B22D8DFE803F0FB
:1003900058212121212C58272721212121212121C8
:1003A0002121212121215821212121212121212106
:1003B00021212158212121212121212158272121B9
:1003C00021212121212121212158212121212121E6
:1003D000215861682846FFF7D1FF00283AD1A46868
:1003E000002CD0D1204638BDD5F8140100283AD0D1
:1003F0004068626883682BB393F800C0BCF12B0F90
:100400001ED1002A35DD9B68013A02F00100CBB114
:1004100093F800C0BCF12B0F12D1E2B120B19B6860
:10042000013A53B90EE0B2B19B68013A53B1197861
:10043000013A2B2904D19B6823B118782B28F2D0DC
:10044000002038BD0121002A0CBF0A4641F00102FC
:100450000AB1002038BD58680028FBD003782B2B48
:1004600018BF002038BD0121C5F81C1138BD084651
:1004700038BD0021E7E700BFF0B50746506883B0FC
:1004800096681446431C0D465B18B3420DD9D268DA
:10049000002A1ED003B0F0BD0226206831460FF0BE
:1004A00097F9034600B32060A660E668002EF1D1FC
:1004B00020682A4663683946C0180EF08DFF22680E
:1004C000616802EB050C0CF8016060684519656015
:1004D000E0E716B9022BDFD902267600B342DCD959
:1004E0007600B342F9D8D8E7206801930EF036FCC5
:1004F000019B0121E16023606360A360CAE700BF44
:10050000026830B4044613786E2B1BD00025A3F18B
:100510003000C2B2092A1AD8216800204A1C00EB18
:10052000800C226003EB4C0012F8013B3038A3F141
:1005300030015FFA81FCBCF1090FF0D905B14042EE
:1005400030BC7047531C012503605378DFE700205F
:10055000F4E700BF38B5044621B9C368197839B14A
:100560000133C360682914D0762903D0002038BD38
:10057000084638BD04F10C052846FFF7C1FFE368C3
:100580001A785F2AF2D1591C2846E160FFF7B8FFBC
:1005900003E004F10C00FFF7B3FFE36818785F286D
:1005A00001D0002038BD01330120E36038BD00BF19
:1005B000C26810B5044613785F2B04D06E2B06D1A9
:1005C0004FF0FF3010BD00200132E26010BD0C3052
:1005D000FFF796FFE26813785F2B02D04FF0FF30F1
:1005E00010BD0130F0E700BFC36810B504461A78AB
:1005F000542A01D0002010BD0133C360FFF7D8FF9B
:10060000031EF7DBA06A6269A1690130A0628A4219
:1006100001DB002010BD02EB420021690132626162
:1006200082008818F6D0436005238B5410BD00BFAC
:1006300008B5C3681A785F2A01D0012008BD0133CC
:1006400040F80C3FFFF75CFFC043C00F08BD00BF80
:1006500070B504460C30FFF753FF051E34DDE66825
:100660006068831B9D422CDCA2687319E36012F062
:10067000040F04D0715D242901D10133E360092DF9
:1006800018DD40F65C513046C0F6080108220EF035
:1006900071FE78B9337A06F10801A3F12E0EDEF16E
:1006A000000C4CEB0E005F2B08BF40F0010068B956
:1006B000242B0BD0204631462A46FFF711FDE0627D
:1006C00070BD0020E06270BD002070BD4A784E2AE7
:1006D000F0D1236B40F668512046C0F6080116336E
:1006E00015225D1B2563FFF7FBFCEBE7C268F0B545
:1006F0000446137883B0A3F1720CDCF1000040EBE8
:100700000C01562B08BF41F00101002952D14B2B9F
:1007100050D0A3F130054A2D6AD8DFE815F07500F6
:100720007500750075007500750075007500750021
:100730007500690069006900690069006900690065
:10074000D4016900AF013D016900BD012F016900BD
:100750006900690069006900050275002101130143
:1007600069000501E000BD00AB0069006900690097
:100770006900750069006900690069006900690025
:1007800095009500950095009500950095009500C1
:100790009500950069009500950095009500690009
:1007A0006900690095009500870095009500950007
:1007B00095009500204601A90022FFF7B7FC0546E9
:1007C000C0B9284603B0F0BD204601F001FA3B2134
:1007D000002302462046FFF731FC05460190002821
:1007E000EFD0E26813781BB1501C452BE060E8D0D5
:1007F0000025E6E72046FFF779FF28600546002838
:10080000DFD0019D3DB9DCE7204600F05BFD0546E9
:100810000190002DD5D0236A626A9342E8DAE1693B
:10082000581C41F82350019D2062CAE7551C204600
:10083000E560FFF70DFF2421002302462046FFF765
:10084000FDFB05460190E4E7B64903EB830311EB9A
:10085000830300F0A1826169A0698142C0F27182C4
:1008600000231D465B685868511C236BE1601A1811
:100870002263A6E7511C2046E160FFF7E9FE0190E4
:100880002046FFF733FF1D21019B02462046FFF75C
:10089000D5FB05460190BCE72046FFF7A5FEE368BF
:1008A0000190054693F800C0BCF1490FB1D1002872
:1008B00087D0236A606A83429ADAE16920465A1C2B
:1008C00041F82350019D226200F0A4FC2A46042135
:1008D00003462046FFF7B2FB0546019099E753789F
:1008E000A3F15F01A3F130004A4242EB010C5FFA31
:1008F00080FEBEF1090F8CBF65464CF0010525B99D
:10090000413BDBB2192B00F22F8200212046FFF77A
:1009100057FCE2680190054692F800C0BCF1490F0F
:100920007FF44FAF2046CFE7531C2046E360FFF72C
:10093000DDFE1F21002302462046FFF77FFB054610
:10094000019066E7511C2046E160FFF7CFFE1E21B3
:10095000002302462046FFF771FB0546019058E749
:10096000551C2046E560FFF7C1FE2021002302460A
:100970002046FFF763FB054601904AE7551C2046D9
:10098000E560FFF7B3FE2221002302462046FFF771
:1009900055FB054601903CE7531CE3605578002D5C
:1009A0003FF40FAF463D5A1CE260302D3FF620AFBA
:1009B00001A151F825F000BF8B0C0208F1070208D5
:1009C000F1070208F1070208F1070208F10702081F
:1009D000F1070208F1070208F1070208F10702080F
:1009E000F1070208F1070208F1070208F1070208FF
:1009F000C9070208F1070208F1070208F107020817
:100A0000F1070208F1070208F1070208F1070208DE
:100A1000F1070208F1070208F1070208F1070208CE
:100A2000F1070208F1070208F1070208F1070208BE
:100A3000650C02083D0C0208170D0208F1070208B8
:100A4000F30C0208150C0208F1070208F10702086E
:100A5000F1070208F1070208F1070208F10702088E
:100A6000FF0B0208F1070208F1070208CF0B02088A
:100A7000C9070208F1070208750B02080132204677
:100A8000E260FFF733FE2121002302462046FFF7F4
:100A9000D5FA05460190BCE6531CE36092F801E0EC
:100AA000BEF1590F00F07D810121204600F0FAF9D6
:100AB000E36893F800C0BCF1450F054600F03D81A6
:100AC00000250195A5E6511CE16053785F2B00F0ED
:100AD0007B81303BDBB2092B00F25581931CE36034
:100AE0001A4613F8010B3038C5B2092DF7D9204644
:100AF000521AFFF7F5FA05460028E2D0E16891F8AE
:100B000000E0BEF15F0FDBD101312046E160FFF76D
:100B1000EDFD2A46262103462046FFF78FFA0546BB
:100B2000019576E65CB90708561C2046E6606D46DE
:100B3000FFF7DCFD6946012206462046FFF7F6FA7C
:100B4000074610B90546019563E62046FFF7CEFD3E
:100B500038600028F6D0AF4203D00278252A40F052
:100B60003581204627213246009BFFF767FA05466C
:100B700001954EE65B785F2B00F01C816169A069EE
:100B80008142BFF635AE01EB410522690131616159
:100B9000AB00D5183FF415AE3A2104F10C00D15446
:100BA000FFF7AEFC6860E36893F800E0BEF15F0F0A
:100BB0007FF41EAE01332046E360FFF797FD2A461F
:100BC000292103462046FFF739FA0546F9E563690E
:100BD000A1698B4280F2C48003EB43052169013394
:100BE0006361AB00CD1800F00081814A2320C85416
:100BF00013466A60226B5B68D1182163E1E52046E9
:100C0000FFF774FD4121002302462046FFF716FA44
:100C10000546D6E56369A1698B4280F2A18003EBAA
:100C2000430521695A1C6261AB00CD1800F0DD80DC
:100C3000704A2320C85413466A60DBE76369A169E0
:100C40008B4280F28D8003EB4305216901336361A0
:100C5000AB00CD1800F0C980674A2320C854134662
:100C60006A60C7E76369A1698B4279DA03EB4305E0
:100C7000216901336361AB00CD1800F0B6805F4A93
:100C80002320C85413466A60B4E76269A569AA4282
:100C900080F2858002EB420C2069511C616100EBFF
:100CA0008C050195282028705A78303AD3B2092B48
:100CB0008CBF002301232B81002B75D12046FFF729
:100CC00015FD6860019D6D68002D3FF47AAD04F15B
:100CD0000C00FFF715FCE26813783BB1A3F1730C2D
:100CE000511CDCF1000EE1604EEB0C03019D6B81A9
:100CF00067E56369A1698B4232DA03EB4305216939
:100D000001336361AB00CD186FD03D4A2320C85436
:100D100013466A606EE76369A269934220DA03EBC7
:100D20004305216901336361AB00CD185DD0354ABD
:100D30002320C85413466A605CE7581C0195E060A4
:100D400067E501EB4105206901316161A9004518A2
:100D500008BF6B683FF487AD23266B60465482E57D
:100D600000231D465B6845E7204600F0ABFA0546C8
:100D7000019000283FF425AD90F800E0BEF1160F79
:100D80007FF449AD1DE5204600F022FF054600280E
:100D90007FF4B4AE01953CE55B68002563E5002572
:100DA0007FE75A1CE2607FE604F10C00FFF7A8FB26
:100DB000019D83E701322046E26000F009FF05460D
:100DC00000287FF4F0AEFCE400259DE6009D002D98
:100DD0003FF477AE236A606A8342BFF671AEE16981
:100DE0005A1C41F823502262BBE66B6802E700BF41
:100DF00048C307085CC3070820C307080CC30708DB
:100E000034C30708F8C2070870B5044682B0002052
:100E1000E268019092F800C0ACF145014B4243EB0F
:100E20000102844514BF134642F001030BBB01AE1F
:100E300014E0FFF703F93060D8B1E36800F1080669
:100E400093F800E0DEF1010C38BF4FF0000CBEF16A
:100E5000450F14BF60464CF0010060B92046FFF713
:100E600045FC2A210023054620462A46002DE0D1D4
:100E7000284602B070BD01980028FAD08368002B84
:100E8000F7D1426811782329F3D1526892F810E023
:100E9000BEF1090FEDD1216B52688A1A22634360BB
:100EA000E7E700BFC26870B5044613784A2B0DD03F
:100EB0000D4669B92046FFF7A7FF034678B12046E3
:100EC00025212A46BDE87040FFF7B8B80132C2605C
:100ED0002046FFF70BFC05460028EBD170BD70BD26
:100EE000C3682DE9F04704461F78B8467FB15A1C05
:100EF000C26093F80180B8F1000F01D0991CC16065
:100F0000762F29D1A8F13005EBB2092B3DD94CF24F
:100F10002C0C3425C0F6070C00230CF55179E91A86
:100F200001EBD17003EB600002010CEB02064A44B6
:100F3000D6F844130E78B7420AD1497888453BD099
:100F4000414507D8431CAB42E9D10020BDE8F087FA
:100F5000BE42F7D90546F6E7A7F16301D1F1000CCF
:100F60004CEB0102B8F1760F14BF002202F001022F
:100F7000002ACCD02046FFF7B9FB2E2100230246E1
:100F80002046BDE8F047FFF759B82046FFF760FB61
:100F900063690146A0698342D7DA03EB4300226903
:100FA000013363618300D01818D0C9B12D24456086
:100FB000D4548160BDE8F0876369A06983420CDA8C
:100FC00003EB43002169013363618300C81805D036
:100FD00042602C22CA54BDE8F0870020BDE8F087AB
:100FE0000846BDE8F08700BFC2682DE9F04104461D
:100FF0001378A3F1300C5FFA8CF109291BD9A3F106
:10100000610C5FFA8CF119290DD9A3F143015FFA44
:1010100081FCBCF1010F23D94C2B10D0552B54D09F
:101020000020BDE8F081FFF75BFF10B103782C2BA7
:101030000ED0BDE8F081BDE8F041FFF709BB551CBB
:10104000C560FFF705FB054600286AD1BDE8F081C1
:101050004168226B8B68D118CA1D2263BDE8F081FC
:10106000C16A21B10878002829D0162827D0432B3F
:1010700033D0442BD4D15378312B65D0322B65D06B
:10108000302BCDD1012563690232A069E260834231
:1010900053DA206903EB430C0133636110EB8C00DE
:1010A00014BF00230123002908BF43F00103002BD4
:1010B000B6D10822057102708160BDE8F0818B68AD
:1010C000206BC01820631378D1E75378511C6C2B28
:1010D00067D0742B3CD00020ABE75378322B31D053
:1010E000332B2DD0312B9BD1012563690232A069AE
:1010F000E26083421EDA206903EB430C0133636133
:1011000010EB8C0014BF00230123002908BF43F01B
:101110000103002B84D10722057102708160BDE8B4
:10112000F0812046FFF784FA002814BF28460020EB
:10113000BDE8F08101230020E7E701230020B2E7AA
:101140000325D2E70225D0E702259CE703259AE78D
:10115000C1605378742B7FF463AF4E1CC660FFF7F9
:1011600027FA061EFFF65CAF6369A1698B42BFF6E2
:1011700057AF0C205A1C626100FB03F221698818EA
:101180003FF457AF236A4027656A8F54AB424660ED
:10119000BFF646AFE1695A1C41F823002262BDE860
:1011A000F081C16092F801C0BCF16C0F7FF438AFE0
:1011B0004E1CC660FFF728FE064600283FF446AFE7
:1011C000E36893F800E0BEF1450F7FF429AF5F1CA0
:1011D0002046E760FFF7ECF9071EFFF621AF6369D1
:1011E000A1698B42BFF61CAF0C205A1C626100FB48
:1011F00003F2216988183FF41CAF236A4FF03E0CBC
:10120000656A01F802C0AB4246608760BFF608AF6E
:10121000C0E700BFC26870B50446137882B0C66AE2
:10122000492B02D0002002B070BD531CC36051781E
:10123000452909D1002201332B21C360134602B096
:10124000BDE87040FEF7FABE002202AD4C2945F819
:10125000042D19D0582921D049291AD02046FFF74A
:1012600045FA0246002A2BD020462B210023FEF708
:10127000E5FE28600028D6D0E368197845291AD001
:101280004C2900F10805E5D1204600F03DFC02465E
:10129000E8E72046FFF7BEFF0246E3E701332046BA
:1012A000E36000F095FCE368197845290246B9D15E
:1012B000581CE060D6E75A1CE662E2600198B2E78B
:1012C0001046B0E7C368F0B504461A7883B04C3ACC
:1012D0000E2A2ED8DFE802F0272D432D2D2D2D08C4
:1012E0002D272D2D2D2D910093F801E0BEF1740FC7
:1012F00000F08F800021FEF763FF01220646E368BD
:1013000093F800C0BCF1490F10D1002A00F09A8078
:101310002046FFF77FFF3246042103462046FEF7B2
:101320008DFE064602E0FFF75FFE0646304603B03C
:10133000F0BDFFF759FEE36893F800C0BCF1490F18
:101340000646F3D10028F1D0236A616A8B425EDA47
:10135000E1695A1C204641F823602262D9E7013333
:1013600001A9C3600122FEF7E1FE06460028DDD098
:10137000E36800271D78002D3BD0A5F1300EA5F1C4
:10138000610C5FFA8EF05FFA8CF109288CBF0020A7
:101390000120192998BF40F00100002840F09680F4
:1013A000A5F14301484240EB0102442D08BF42F041
:1013B0000102002A40F08A80A5F1550CDCF1000EF4
:1013C0004EEB0C024C2D08BF42F00102002A7DD1E9
:1013D000532D00F0A780492D00F0AF80542D00F070
:1013E000A780452D00F0B4804D2D02D1002F40F094
:1013F000928000203060064698E75D1C0021C560A1
:1014000000F0CEF8E3681A78452A054627D0002672
:101410008CE740F690519D1C0322C0F60801C56080
:10142000FEF75EFE05462046FFF7DEFD01212A4657
:1014300003462046FEF702FE00220646206BC11C32
:1014400021635CE7002E3FF471AF236A616A8B422F
:101450005FDAE0695A1C40F82360226258E7591CA1
:10146000E1605A78732A00F08980642A18BF4FF02F
:10147000FF3679D02046FFF725FF074650B10378A5
:101480003E2B07D0402B05D02046FFF7D1F800288F
:101490003FF44BAFB6F1FF3F08BF3B460FD0636947
:1014A000A069834252DA03EB43022169013363618D
:1014B00092008B1803D09E603F265F608E542046BA
:1014C00002212A46FEF7BAFD06462FE72046FFF71F
:1014D0008BFD0346DFB101213A462046FEF7AEFD03
:1014E0000746532D1BD0E3681D78452D3FF445AFCB
:1014F000002F3FF47EAF226A606A8242BFF679AF66
:10150000E169551C41F8227025621D7833E71F46BA
:10151000E7E716460AE70133E3601D782BE7E36847
:101520001D7828E720460121FEF74AFE0346D1E751
:101530002046FFF759F80346CCE7002F3FF459AF98
:101540002046FFF767FE04210346C5E70023B6E700
:1015500037603E46002F3FF4E9AE1E78452ED8D1C5
:101560000133019EE360E1E64E1C2046E660FFF792
:101570001FF8061EBFF67EAF0026D7E601312046D3
:10158000E160FFF755F800283FF4CFAE40F68051F8
:101590000E22C0F608012046FEF7A2FD03468EE7A4
:1015A000C2682DE9F0470E4611780446A1F1470CB8
:1015B000DCF1000343EB0C05542914BF2B4645F026
:1015C0000103002B4FD1FFF77DFE003E18BF01261F
:1015D00000280CBF002606F001060546002E21D18A
:1015E000E3681B78D3F1010138BF0021002D08BF4B
:1015F00041F00101002933D1452B31D02B461A7817
:10160000042A00F0D180A2F11A0238D2002120462B
:10161000FFF748FC03212A4603462046BDE8F04771
:10162000FEF70CBDA36813F0010FD9D10378A3F125
:101630001A0C5FFA8CFEBEF1020F06D86D682B788B
:10164000A3F11A01C8B20228F8D9022B08D1AB685D
:1016500000E05B6818781A38C2B2022AF9D9AB6088
:101660002846BDE8F087016B143101631378542BD1
:1016700025D0472B0AD000252846BDE8F087022A4E
:10168000C4D85B68002BBAD11946C0E7511CC160B1
:101690005578002DE4D00232522DC26000F08A81CC
:1016A00000F29281412DE6D10021FFF779FF15214B
:1016B000002302462046BDE8F047FEF7BFBC531C9E
:1016C000C3605578002DCBD0433D5A1CC260332DEA
:1016D000D1D801A353F825F05F1902087716020844
:1016E000771602084B1902087716020877160208C7
:1016F000371902082319020877160208771602081C
:10170000771602087716020877160208771602087D
:1017100077160208771602080F190208F718020850
:1017200077160208DF1802087716020877160208F3
:10173000771602087716020877160208771602084D
:10174000771602087716020877160208771602083D
:101750007716020877160208B118020877160208F1
:101760007716020877160208771602088F18020803
:10177000771602087716020877160208771602080D
:1017800077160208771602087716020877160208FD
:1017900077160208771602087716020877160208ED
:1017A000771602087F1802085B68002B65D018784E
:1017B000421E2D2A61D801A151F822F075180208A5
:1017C000751802087B1802087B1802087B180208AB
:1017D0007B1802080D1602080D1602087B18020875
:1017E0007B1802087B1802087B1802087B18020885
:1017F0007B1802087B1802087B1802087B18020875
:101800007B1802087B1802087B1802087B18020864
:101810007B1802087B1802087B1802087B18020854
:101820007B1802087B1802087B1802087B18020844
:101830007B1802087B1802087B1802087B18020834
:101840007B1802087B1802087B1802087B18020824
:101850007B1802087B1802087B1802087B18020814
:101860007B1802087B1802087B1802087B18020804
:101870000D1602089B68002B99D10121C7E676213D
:10188000FEF768FE002840F089800546E8E66821FA
:10189000FEF760FE0028F8D000212046FFF780FE0A
:1018A0000F21002302462046BDE8F047FEF7C6BBE5
:1018B0000021FEF74FFE0028E7D020460021FEF76A
:1018C00049FE0028E1D000212046FFF769FE1121E2
:1018D000002302462046BDE8F047FEF7AFBB0539BE
:1018E0000163FEF703FF0921002302462046BDE8FD
:1018F000F047FEF7A3BB0A390163FEF7F7FE0A21A2
:10190000002302462046BDE8F047FEF797BBFEF7EE
:10191000EDFE0D21002302462046BDE8F047FEF70C
:101920008DBBFEF7E3FE1221002302462046BDE8F0
:10193000F047FEF783BBFEF7D9FE0C2100230246D9
:101940002046BDE8F047FEF779BBFEF7CFFE0E213B
:10195000002302462046BDE8F047FEF76FBBFEF7C6
:10196000C5FE064604F10C00FEF7CAFD0028FFF68E
:1019700082AEE36818785F287FF47DAE013320469D
:10198000E360FEF7B3FE256B0B2133460535256377
:1019900002462046BDE8F047FEF750BB0021204636
:1019A000FFF7FEFD1021002302462046BDE8F04768
:1019B000FEF744BBFFF786FC1421002302462046B5
:1019C000BDE8F047FEF73ABB562D51D0722D7FF49B
:1019D00052AE0C30FEF794FD01287FF74CAEE5685F
:1019E0002B78002B3FF447AE01355F2BE5607FF489
:1019F00042AE461E4FF000084FF00C094FF0390A76
:101A00002A78002A59D0242A3CD0002716F0010F4A
:101A10002B4605D10137B7420BDB0EE0242A0CD050
:101A20000137B74209DA13F8012F32B1242A04D062
:101A3000013713F8012F002AF0D129463A462046F3
:101A4000FEF74EFBE268D519E560034600283FF437
:101A50001CAFF61BB8F1000F31D19846002ECFDC39
:101A60002046372142460023BDE8F047FEF7E6BA9C
:101A7000FFF728FC1321002302462046BDE8F0476B
:101A8000FEF7DCBA6B78532B2AD05F2B26D0242BA1
:101A90007FF4F1AD6369A06983421ADA09FB03F1AF
:101AA00020695D1C6561431813D0E568023E00F8AB
:101AB00001A05A600235E560CCE71546D0E5424604
:101AC00020463821FEF7BAFA80460028C6D10546DE
:101AD000C6E5E16800258B1CE360C1E52E22D9E74D
:101AE0002F22D7E7C268034610785F2802D021B1C1
:101AF000002070470132DA6010785A28F8D101329C
:101B00001846DA604CE500BFC36870B504461A7821
:101B10004C2A01D0002070BD591CC16093F801C04F
:101B2000ACF15F02D2F1000E4EEB0201BCF15A0F94
:101B300014BF0B4641F0010353B10021FFF7D2FF60
:101B4000E36893F800C0BCF1450F2CD0002070BDB5
:101B5000FEF7CCFD0546002836D00678232E2AD085
:101B6000E16808786E2821D0352645282DD0002838
:101B7000EDD04B1C01E00028E9D0E3601A4613F8D1
:101B8000010B4528F7D1521A2046FEF7A9FA314633
:101B90002A4603462046FEF751FAE36893F800C050
:101BA000BCF1450FD2D10133E36070BD013136265F
:101BB000E1600878D9E74368187C0028D0D0226B10
:101BC0005968531A2363CBE770BD0022DCE700BFDE
:101BD000C268F0B50446137883B04C2B00F08480C3
:101BE000542B00F08580732B51D0662B1ED0A3F1AF
:101BF000300E5FFA8EFCBCF1090F32D96F2B02D187
:101C000053786E2B2BD02046FFF76AF9054650B16A
:101C100006782C2E4DD02D2E6FD02E2E76D02C2E39
:101C200000F096800025284603B0F0BD5578702D51
:101C3000E9D1931CC360FEF7BBFC0028F2DB6369AB
:101C4000A2699342EEDA03EB430122695D1C6561F0
:101C50008B00D518E7D068600620D054E3E7023245
:101C6000C2602046FFF7C0F905460028DBD0E068D7
:101C700001784929D7D12046FFF7CCFA04212A461A
:101C80000346204603B0BDE8F040FEF7D7B95378CD
:101C9000722B47D0702BB6D1911CC160FFF798FF13
:101CA000412100230246204603B0BDE8F040FEF784
:101CB000C5B9476840F69451226BC0F60801BB686D
:101CC0003868D218931E23630EF0DEF8002840D146
:101CD0002046FEF70BFD034620462F212A4603B07F
:101CE000BDE8F040FEF7AAB903B0BDE8F0400BE74D
:101CF00003B0BDE8F040FEF777BC4368022B4AD042
:101D0000032B28D0012B8DD12E2E06D1E36893F81A
:101D100000C0BCF15F0F00F09E802046FFF758FF27
:101D20000346D9E70232C260FEF7E0FC05462046D2
:101D3000FFF75AF90646E0680378492B66D020463B
:101D400001212A46334603B0BDE8F040FEF776B9DC
:101D50004768FB68D2E72046FFF73AFF0646204671
:101D6000FFF736FF07462046FFF732FF34213A4699
:101D700003462046FEF762F93321324603462046E9
:101D8000FEF75CF932212A460346204603B0BDE83F
:101D9000F040FEF753B96E6820463768FFF718FF2A
:101DA00040F69851C0F60801064638460EF06CF829
:101DB000002826D040F69C513846C0F608010EF0A7
:101DC00063F840B140F6A0513846C0F608010EF065
:101DD0005BF800282CD12046FFF706F9E26803469D
:101DE0001078492829D0312132462046FEF726F9BD
:101DF00030212A460346204603B0BDE8F040FEF7F6
:101E00001DB9204600F02EF80346ECE72046FFF708
:101E100001FA0421324603462046FEF70FF901215C
:101E20002A460346204603B0BDE8F040FEF706B957
:101E30002046FFF7CDFE0346D5E720460193FFF786
:101E4000E9F9019B04211A46074620463B46FEF766
:101E5000F5F80346C7E7591C2046E16000F002F898
:101E6000034639E7C368002270B582B00446019288
:101E70001978452918BF01AE08D101332A21C36062
:101E8000134602B0BDE87040FEF7D8B82046FFF711
:101E90009FFE2A210023054620462A4675B1FEF7FB
:101EA000CDF8306040B1E36800F108061A78452AA1
:101EB000ECD10198591CE16002B070BD2846FBE7E7
:101EC0002DE9F84F044608460F460EF029F98046E2
:101ED00000285CD0D4F8041100F1FF394FF0000A5B
:101EE00004F1040BFF2909F001093E786FD00B467D
:101EF0000131012504EB030E4545C4F804118EF8A9
:101F0000046084F8086142D0B9F1000F29D0FF299C
:101F10007E5D6CD00B460131013504EB030C454569
:101F2000C4F804118CF8046084F8086119D16EE0DB
:101F300004EB030C0135511CFF2AC4F8042113469D
:101F40008CF8046084F808617E5D22D0013504EBD2
:101F5000030E4545C4F804118EF8046084F8086146
:101F600033D0FF290B467E5D01F10102E0D1D4F8A8
:101F70000C315846D4F8102184F803A19847D4F8BE
:101F80002401012200238118C4F82411D0E7BDE800
:101F9000F88F11465846D4F80C310135D4F8102189
:101FA00084F803A1984700230121D4F8242104EBED
:101FB000030E454502EB0100C4F80411C4F82401E6
:101FC0008EF8046084F80861CBD1BDE8F88FD4F8AE
:101FD0000C315846D4F8102184F803A19847D4F85E
:101FE0002451012153466A18C4F8242181E7D4F80A
:101FF0000C315846D4F8102184F803A19847D4F83E
:102000002421294600235019C4F8240184E7BDE89F
:10201000F88F00BF2DE9F04F0D469BB00446002914
:1020200000F0F780D0F81C01002840F0EA800B781F
:10203000412B00F2EA8001A050F823F01B22020895
:10204000C3380208C33802088936020873410208FF
:102050000D3602089B3402088F34020869340208E6
:10206000D33302081132020899310208D130020834
:10207000593002082D3E0208A33D0208FD41020826
:10208000E12F0208E32C02084D2C0208D52B020890
:10209000452A0208352E0208F92D0208F92D0208FA
:1020A000F92D02080D2A02080D2A02080D2A02083D
:1020B0000D2A02080D2A02080D2A02080D2A02081C
:1020C0000D2A02080D2A02084D2902089D33020834
:1020D000193302086D3F0208ED320208EB3B02089B
:1020E000ED320208873B0208873B0208974302084B
:1020F000652802087D4002084D3F0208452102087C
:102100000B220208353B02080B2202080B220208B0
:102110006F2402086F240208DD220208C733020878
:10212000A9330208CF3C0208DB2402085732020818
:102130000B260208832602080B220208F338020845
:10214000012F02088B6893F800C0BCF1310F5CD1FD
:102150004A6816782C2E04F01D845968204606F033
:1021600043FED5F8048040F64461C0F60801D8F873
:1021700004301F6838460DF087FE0646002843F0FD
:102180006180D4F80411FF2904F01A8704EB010CD4
:102190005B204B1C84F808018CF804002046C4F82E
:1021A0000431A9688968FFF735FFD4F80411FF29C5
:1021B00004F0F58604EB010E5D20013184F808017E
:1021C0008EF80400C4F804116B6893F800C0BCF1E9
:1021D0002C0F16D15B689968012912D158680378D1
:1021E0003E2B0ED1D4F80411FF2904F0C38704EB71
:1021F000010E2920013184F808018EF80400C4F88A
:1022000004111BB0BDE8F08F009C0122C4F81C2112
:10221000F7E70123C0F81C31F3E7226812F0040944
:1022200042F001848F68D1F80480002FE9D0D4F8FF
:10223000041107F1FF3B04F1040A0BF0010BFF2925
:1022400098F8006004F036850B460131012504EB57
:10225000030CAF42C4F804118CF8046084F80861E0
:10226000CFD0BBF1000F11D0FF2918F8056004F0A2
:10227000A7850B460131013504EB030CAF42C4F8CE
:1022800004118CF8046084F80861BAD0FF290B4669
:1022900018F8056001F1010202F0D38504EB030C8C
:1022A0000135511CFF2AC4F8042113468CF8046040
:1022B00084F8086118F80560DDD111465046D4F85D
:1022C0000C31D4F8102184F803919847D4F82401F4
:1022D000012100234218C4F82421CCE7D4F80411CA
:1022E000FF2903F01481621801316A20FF29C4F824
:1022F0000411107184F8080103F02C8704EB010E1F
:1023000001316123FF29C4F804118EF8043084F8E8
:10231000083103F00C8704EB010C01317623FF290F
:10232000C4F804118CF8043084F8083103F0EC860A
:1023300004EB010E01316123FF29C4F804118EF86A
:10234000043084F8083103F0CC8604EB010C013131
:102350002023FF29C4F804118CF8043084F80831D4
:1023600003F02A8004EB010E01317223FF29C4F827
:1023700004118EF8043084F8083103F00A8004EB6D
:10238000010C01316523FF29C4F804118CF80430D5
:1023900084F8083102F0EA8704EB010E013173235F
:1023A000FF29C4F804118EF8043084F8083102F0D3
:1023B000CA8704EB010C01316F23FF29C4F8041113
:1023C0008CF8043084F8083102F0AA8704EB010E7F
:1023D00001317523FF29C4F804118EF8043084F804
:1023E000083102F08A8704EB010C01317223FF29C6
:1023F000C4F804118CF8043084F8083102F06A87BC
:1024000004EB010E01316323FF29C4F804118EF897
:10241000043084F8083102F04A87621865230131DC
:10242000FF29C4F80411137184F808310ED0481C38
:1024300004EB010CC4F80401202120468CF80410A0
:1024400084F808116968FFF7E5FDDAE60026201D2B
:10245000D4F80C31D4F8102184F803619847D4F8EB
:102460002421012031461318C4F82431E0E74A68DA
:102470001678232E02F086850026D4F80411FF2951
:1024800004F09781481C04EB010CC4F804012821D6
:1024900020468CF8041084F808116968FFF7BAFD2B
:1024A000D4F80431FF2B04F09681591C04EB030C83
:1024B000292084F808018CF8040095F800E0C4F89D
:1024C0000411BEF1360F02F0CB85082E02F0828592
:1024D0002046A968FFF79EFD93E6D4F80411FF2972
:1024E00003F0D08604EB010E01316420FF29C4F80B
:1024F00004118EF8040084F8080103F0B08604EBA0
:10250000010C01316520FF29C4F804118CF8040086
:1025100084F8080103F0908604EB010E013163207A
:10252000FF29C4F804118EF8040084F8080103F0B0
:10253000708604EB010C01316C20FF29C4F80411F2
:102540008CF8040084F8080103F0508604EB010EB7
:1025500001317420FF29C4F804118EF8040084F8B6
:10256000080103F0308604EB010C01317920FF29CA
:10257000C4F804118CF8040084F8080103F01086F4
:1025800004EB010E01317020FF29C4F804118EF80C
:10259000040084F8080103F0F08504EB010C01311C
:1025A0006520FF29C4F804118CF8040084F80801A0
:1025B00003F0678204EB010E01312020FF29C4F8EB
:1025C00004118EF8040084F8080102F02980481CE8
:1025D00004EB010CC4F80401282120468CF80410F7
:1025E00084F808116968FFF715FDD4F80411FF2974
:1025F00002F004864A1C04EB010E2920C4F80421D1
:102600008EF8040084F80801FBE5CF4E4FF0000A75
:10261000D4F8041104F1040B06F11C08A94619E0D2
:1026200004EB030E6E1C511CFF2AC4F80421134650
:102630008EF8047084F808716D7802F0128104EB52
:10264000030C4645C4F8041184F808518CF8045072
:1026500002F06580751CFF290B46777801F10102B5
:10266000DED1D4F80C315846D4F8102184F803A1F7
:102670009847D4F8246101220023B118C4F824112A
:10268000CEE7D4F80411FF2903F034846218013135
:102690007B27FF29C4F80411177184F8087103F02F
:1026A000168404EB010C01316C20FF29C4F80411DD
:1026B0008CF8040084F8080103F0F68304EB010EA3
:1026C00001316123FF29C4F804118EF8043084F825
:1026D000083103F0D68304EB010C01316D20FF2992
:1026E000C4F804118CF8040084F8080103F0B683E0
:1026F00004EB010E01316227FF29C4F804118EF8A2
:10270000047084F8087103F0968304EB010C013126
:102710006420FF29C4F804118CF8040084F808012F
:1027200003F0768304EB010E01316123FF29C4F825
:1027300004118EF8043084F8083101F05F87481CDA
:1027400004EB010CC4F80401282120468CF8041085
:1027500084F808116968FFF75DFCD4F80411FF29BB
:1027600003F0858204EB010E01312920FF29C4F812
:1027700004118EF8040084F8080101F01C874A1C3B
:1027800061182320C4F8042108AF087140F668617D
:1027900084F80801C0F60801AA68384601320DF035
:1027A00027FB38460DF0BCFC002801F0BF87D4F8A9
:1027B00004116FEA070A3E183D46FF290AEB060995
:1027C0004FF0000804F1040A09F0010915F8017B33
:1027D00004F025800B46013104EB030EB542C4F82A
:1027E000041184F808718EF8047001F0A187B9F122
:1027F000000F11D0FF2915F8017B04F082800B46F1
:10280000013104EB030CB542C4F8041184F80871DB
:102810008CF8047001F08C874A1CFF290B4615F8D0
:10282000017B02F0CD8004EB030C511CFF2AC4F89D
:1028300004218CF80470134684F8087115F8017BA4
:10284000DFD1D4F80C315046114684F80381D4F816
:1028500010219847D4F82421012100235018C4F8EE
:102860002401CEE7D4F80411FF2902F0588704EBC5
:10287000010E01316F20FF29C4F804118EF8040005
:1028800084F8080102F0388704EB010C0131702054
:10289000FF29C4F804118CF8040084F8080102F040
:1028A000188704EB010E01316520FF29C4F80411DB
:1028B0008EF8040084F8080102F0F88604EB010C9D
:1028C00001317220FF29C4F804118CF8040084F847
:1028D000080102F0D88604EB010E01316120FF29C6
:1028E000C4F804118EF8040084F8080102F0B886D8
:1028F00004EB010C01317420FF29C4F804118CF899
:10290000040084F8080102F0988604EB010E0131FE
:102910006F20FF29C4F804118EF8040084F8080120
:1029200002F0788604EB010C01317220FF29C4F813
:1029300004118CF8040084F8080101F02A86481C70
:102940006218202300F098BD8F0E0808276817F042
:10295000040942F0F1804968D1F804800F68B8F1A9
:10296000000F3FF44EACD4F8041108F1FF3504F128
:10297000040A05F0010BFF293E7804F077810B462D
:1029800001310125E218A845C4F80411167184F834
:1029900008613FF436ACBBF1000F11D0FF297E5D1A
:1029A00004F027820B460131013504EB030CA845E6
:1029B000C4F804118CF8046084F808613FF421AC79
:1029C000FF290B467E5D01F1010202F0298204EB32
:1029D000030C0135511CFF2AC4F8042113468CF85E
:1029E000046084F808617E5DDED111465046D4F85B
:1029F0000C31D4F8102184F803919847D4F824219D
:102A0000012100235018C4F82401CDE7D4F818118F
:102A10001AAAD4F814312046099542F8481DC4F882
:102A20001821696800220B930A92FFF7F3FA0A9BB8
:102A30001BB92046294604F0EFFB0898C4F818019A
:102A4000FFF7DFBBD4F80411FF2902F0B486621847
:102A500001316823FF29C4F80411137184F8083187
:102A600002F0968604EB010E01316923FF29C4F8B8
:102A700004118EF8043084F8083102F0E78604EB84
:102A8000010C01316426FF29C4F804118CF804609C
:102A900084F8086102F0C88604EB010E013164235A
:102AA000FF29C4F804118EF8043084F8083102F0CC
:102AB000A88604EB010C01316520FF29C4F804113C
:102AC0008CF8040084F8080102F0888604EB010EFB
:102AD00001316E20FF29C4F804118EF8040084F837
:102AE000080102F0FF8604EB010C01312020FF29D0
:102AF000C4F804118CF8040084F8080102F0DF86A1
:102B000004EB010E01316120FF29C4F804118EF895
:102B1000040084F8080102F0BF8604EB010C0131C7
:102B20006C20FF29C4F804118CF8040084F8080113
:102B300002F09F8604EB010E01316920FF29C4F8E1
:102B400004118EF8040084F8080102F0F18604EB09
:102B5000010C01316120FF29C4F804118CF8040034
:102B600084F8080102F0D186621873230131FF292D
:102B7000C4F80411137184F8083101F04D8604EB98
:102B8000010E01312023FF29C4F804118EF804300E
:102B900084F8083101F02D8604EB010C0131662325
:102BA000FF29C4F804118CF8043084F8083101F0CE
:102BB0000D8604EB010E01316F23FF29C4F80411C7
:102BC0008EF8043084F8083101F0ED856218722324
:102BD000013125E4C84E4FF0000AD4F8041104F185
:102BE000040B06F11808A94619E004EB030C6E1C4F
:102BF000511CFF2AC4F8042113468CF8047084F891
:102C000008716D7801F01B8604EB030E4645C4F88D
:102C1000041184F808518EF8045001F08085751C69
:102C2000FF290B46777801F10102DED15846D4F82E
:102C3000102184F803A1D4F80C61B047D4F8241112
:102C4000012200238818C4F82401CEE7DFF8AC8203
:102C50004FF0000AD4F8041104F1040B4646FF2992
:102C600016F8127D02F077860B46013104EB03095A
:102C7000C4F8041184F8087189F80470A94619E0B1
:102C800004EB030E6E1C511CFF2AC4F804211346EA
:102C90008EF8047084F808716D7801F0188604EBE2
:102CA000030C4645C4F8041184F808518CF804500C
:102CB00001F03585751CFF290B46777801F101027B
:102CC000DED1D4F80C315846D4F8102184F803A191
:102CD0009847D4F8246101220023B118C4F82411C4
:102CE000CEE7D4F80411FF2902F0FE8304EB010CB7
:102CF00001316A20FF29C4F804118CF8040084F81B
:102D0000080102F0DE8304EB010E01316120FF298E
:102D1000C4F804118EF8040084F8080102F0BE83A0
:102D200004EB010C01317620FF29C4F804118CF862
:102D3000040084F8080102F09E8304EB010E0131C7
:102D40006120FF29C4F804118EF8040084F80801FA
:102D500002F07E8304EB010C01312020FF29C4F82E
:102D600004118CF8040084F8080102F05E8304EB7F
:102D7000010E01314320FF29C4F804118EF804002C
:102D800084F8080102F03E8304EB010C01316C2051
:102D9000FF29C4F804118CF8040084F8080102F03B
:102DA0001E8304EB010E01316120FF29C4F80411D8
:102DB0008EF8040084F8080102F0F38304EB010CA0
:102DC00001317326FF29C4F804118CF8046084F8DB
:102DD00008617FF4C9AED4F80C310022201D84F8BC
:102DE0000321D4F810219847D4F824310121267109
:102DF0005818C4F82401C2E6D4F8181100293FF489
:102E000007AE0A4603E01268002A3FF401AE90685C
:102E10000028F8D150680078A0F11706F6B2022E0B
:102E20003FF6F6AD8342EED120466968FFF7F2F82F
:102E3000FFF7E7B98F68D1F80480002F3FF4E1A9CC
:102E4000D4F8041107F1FF394FF0000A04F1040B24
:102E5000FF2909F0010998F8006003F013850B467B
:102E60000131012504EB030CAF42C4F804118CF8C6
:102E7000046084F808613FF4C4A9B9F1000F12D0CE
:102E8000FF2918F8056003F05B850B460131013519
:102E900004EB030CAF42C4F804118CF8046084F80E
:102EA00008613FF4AEA9FF290B4618F8056001F14F
:102EB000010201F0A78504EB030C0135511CFF2A28
:102EC000C4F8042113468CF8046084F8086118F8EB
:102ED0000560DCD111465846D4F80C31D4F81021E5
:102EE00084F803A19847D4F8242101210023501825
:102EF000C4F82401CBE700BF270E0808260E0808F7
:102F000020464968FDF73AFA002803F087870278DF
:102F10002B2A7FF476A9416800293FF472A9002684
:102F200007E090F800B0BBF12B0F06D1436823B146
:102F30003E468068771C0028F3D1D5F804804FF016
:102F4000000A2046C4F820A141467D1EFFF762F822
:102F500056454FF0200905F0010B02F3A58001252D
:102F6000BD423FF44EA9BBF1000F0CD0C4F8205174
:102F700020464146FFF74EF8AE4202F3F38001359A
:102F8000BD423FF43EA9C4F8205120464146FFF718
:102F900041F8AE4201F3DB8301352046C4F82051ED
:102FA0004146FFF737F8AE42E9DDD4F80411FF29B6
:102FB00002F06B8104EB010E01312C20FF29C4F8D3
:102FC00004118EF8040084F8080101F0BF824B1C44
:102FD0006118C4F8043184F8089181F80490CEE7B0
:102FE000C94E4FF0000AD4F8041104F1040B06F1A5
:102FF0001A08A94619E004EB030E6E1C511CFF2AA7
:10300000C4F8042113468EF8047084F808716D78B2
:1030100001F04B8404EB030E4645C4F8041184F818
:1030200008518EF8045001F07A83751CFF290B4675
:10303000777801F10102DED1D4F80C315846D4F88A
:10304000102184F803A19847D4F824110122002309
:103050008E18C4F82461CEE7AC4E4FF0000AD4F8C5
:10306000041104F1040B06F11208A94619E004EB5F
:10307000030E6E1C511CFF2AC4F8042113468EF85F
:10308000047084F808716D7801F0FD8304EB030C83
:103090004645C4F8041184F808518CF8045001F036
:1030A0003E83751CFF290B46777801F10102DED1C2
:1030B000D4F80C315846D4F8102184F803A198476D
:1030C000D4F8246101220023B118C4F82411CEE7FA
:1030D000D4F80411FF2902F0758604EB010C0131CC
:1030E0007420FF29C4F804118CF8040084F8080146
:1030F00002F0558604EB010E01317920FF29C4F856
:1031000004118EF8040084F8080102F0358604EBFF
:10311000010C01317020FF29C4F804118CF804005F
:1031200084F8080102F0158604EB010E01316520D8
:10313000FF29C4F804118EF8040084F8080102F095
:10314000F58504EB010C01316920FF29C4F8041155
:103150008CF8040084F8080102F0D58504EB010E18
:1031600001316E20FF29C4F804118EF8040084F8A0
:10317000080102F0B58504EB010C01316620FF293E
:10318000C4F804118CF8040084F8080102F0958555
:1031900062186F230131EAE45D4E4FF0000AD4F863
:1031A000041104F1040B06F11808A94619E004EB18
:1031B000030C6E1C511CFF2AC4F8042113468CF822
:1031C000047084F808716D7801F0938304EB030EAA
:1031D0004645C4F8041184F808518EF8045001F0F3
:1031E0000885751CFF290B46777801F10102DED1B5
:1031F000D4F80C315846D4F8102184F803A198472C
:10320000D4F8246101220023B118C4F82411CEE7B8
:10321000D4F80411FF2902F0518704EB010C0131AD
:103220005623FF29C4F804118CF8043084F80831BF
:1032300002F0318704EB010E01315426FF29C4F856
:1032400004118EF8046084F808613FF4C4AD62187C
:10325000542301318BE4DFF8BC804FF0000AD4F82E
:10326000041104F1040B4646FF2916F81C7D02F0F8
:1032700087810B46013104EB0309C4F8041184F87B
:10328000087189F80470A94619E004EB030C6E1C60
:10329000511CFF2AC4F8042113468CF8047084F8EA
:1032A00008716D7801F0378304EB030E4645C4F8CE
:1032B000041184F808518EF8045001F03082751C16
:1032C000FF290B46777801F10102DED1D4F80C31E9
:1032D0005846D4F8102184F803A19847D4F8240163
:1032E000012200238618C4F82461CEE7D4F818110F
:1032F0001AAAD4F814312046099542F8481DC4F89A
:103300001821A968FFF78EBBF70D0808CB0D080838
:10331000AF0D08088C0E0808226812F0200F41F04B
:1033200075856868002801F05185D4F818111AAA2B
:10333000D4F814312046099542F8481DC4F81821E4
:10334000002269680B930A92FEF764FE089B0A99B3
:10335000C4F8183100297EF454AF206810F020061C
:103360007EF44FAFD4F80411FF2903F03C8604EB40
:10337000010E2020013184F808018EF80400C4F801
:103380000411002E7EF43DAF2046291D05F10802F0
:10339000D4F8183105F0EAFAFEF733BF2046496841
:1033A000FEF738FEFEF72DBFD4F804112D79FF2962
:1033B00001F036874B1C6118C4F8043184F80851B9
:1033C0000D71FEF71EBF49682046FEF723FEFFF78A
:1033D0007FB8D4F80411FF2902F0098104EB010E33
:1033E00001317620FF29C4F804118EF8040084F816
:1033F000080102F0E98004EB010C01317420FF297F
:10340000C4F804118CF8040084F8080102F0268343
:1034100004EB010E01316120FF29C4F804118EF87C
:10342000040084F8080102F0068304EB010C01316A
:103430006220FF29C4F804118CF8040084F8080104
:1034400002F0E68204EB010E01316C20FF29C4F882
:1034500004118EF8040084F8080102F0C682621894
:1034600065230131FFF783BBD4F80411FF2901F074
:10347000B386481C62187E23C4F8040120461371E9
:1034800084F80831A968FEF7C5FDFEF7BABE2046EC
:103490008968FEF7BFFDFEF7B4BED4F80411FF291A
:1034A00002F0888704EB010C01317B27FF29C4F867
:1034B00004118CF8047084F8087102F0688704EB3A
:1034C000010E01317023FF29C4F804118EF8043075
:1034D00084F8083102F0488704EB010C01316120C7
:1034E000FF29C4F804118CF8040084F8080102F0E4
:1034F000288704EB010E01317227FF29C4F804115B
:103500008EF8047084F8087102F0CE8204EB010C8E
:1035100001316D20FF29C4F804118CF8040084F8EF
:10352000080101F08F804A1C61182320C4F804218F
:1035300008AF087140F6686184F80801C0F6080118
:103540006A68384601320CF053FC38460CF0E8FD4E
:10355000002801F0EB80D4F804116FEA07083E1848
:103560003D46FF2908EB060904F1040A4FF0000864
:1035700009F0010915F8017B03F062810B46013166
:1035800004EB030EB542C4F8041184F808718EF8F8
:10359000047001F0CD80B9F1000F11D0FF2915F8AA
:1035A000017B03F0A0810B46013104EB030CB54213
:1035B000C4F8041184F808718CF8047001F0B88024
:1035C0004A1CFF290B4615F8017B01F00A8204EB27
:1035D000030E511CFF2AC4F804218EF80470134610
:1035E00084F8087115F8017BDFD1D4F80C3150460E
:1035F000114684F80381D4F810219847D4F82401A7
:10360000012100234218C4F82421CEE7D4F8146124
:10361000002E3EF4FAAD73684A689B68002B01F0F7
:10362000DA8393F800C0BCF12B0F7EF4EEAD002AD4
:1036300043F3D6849B68013A02F00100002B01F0AD
:10364000CA8319782B297EF4E0AD002A01F0CC83DF
:1036500038B19B68013A93B901F0BDBB002A01F073
:10366000C3839B68013A002B01F0B5831878013AB7
:103670002B287EF4CAAD9B68002B01F0AC83187830
:103680002B28EBD0FEF7C1BDD4F818610023C4F895
:10369000183103964E68002E3EF4B7AD30780DF128
:1036A0006808D4F814C11A3848F8483D0996C2B2DF
:1036B000C4F81881022A0A93CDF82CC003F2C884FA
:1036C0007668002E3EF4A1AD307808F11001CDF8F7
:1036D00030801A38C4F818110D96C2B20E93022A1F
:1036E000CDF83CC003F2B0847668002E3EF48DAD78
:1036F000307808F1200210911A38C4F81821119678
:10370000C1B212930229CDF84CC003F299847668B5
:10371000002E3EF47AAD307808F1300114921A3858
:10372000C4F818111596C2B21693022ACDF85CC0DF
:103730007EF66BAD4FF004093378042B03F0518310
:10374000022B68D1D6F808B09BF800003F2808BFCC
:10375000DBF804B09BF800101A39CAB2022A5AD812
:10376000B9F1040F3EF451AD09F1FF3719F0010F23
:1037700008EB071A03F0AF8107955D4606960094A3
:103780001CE0B9F1040F09F1010909F1FF373EF41A
:103790003BAD94E80F0086E80F000023059A0099DE
:1037A000C4F810B06560A360C4F80CC0C1F818215B
:1037B0006D682E781A3EF4B2022C29D89AE80F00D0
:1037C0000AF1100408EB0717019708EB091709F134
:1037D000010909F1FF3B04F1100684E80F00002104
:1037E000019808EB0913009A08EB0B1BCAF8045068
:1037F000CAF81000CAF80810CAF80CC0B246C2F8DD
:1038000018716D6805932B781A3BD8B20228B8D985
:10381000069E009C079D2046A968FEF7FBFB3278B8
:10382000042A04BF189AC4F81421B9F1000F43D038
:1038300008EB091509F1FF36202704F1040A55F8B1
:10384000088C06F0010BB8F1000F12D1D4F8041166
:10385000FF2903F0118404EB010E84F80871013193
:1038600020468EF80470C4F8041155F80C1C03F0BF
:10387000D3FC103D06B3BBF1000F00F0188755F8DC
:10388000088C013EB8F1000F12D1D4F80411FF29C1
:1038900003F0E28304EB010C84F808710131204647
:1038A0008CF80470C4F8041155F80C1C03F0B4FC37
:1038B000103D002E40F0FB86039AC4F81821FEF755
:1038C000A0BC20464968FEF7A5FB266816F0040652
:1038D00001F0C882D4F80411FF2903F08C804A1C3F
:1038E00061182E20C4F80421087184F80801FEF73D
:1038F000EFBDD4F80411FF2901F0378704EB010E66
:1039000001317B27FF29C4F804118EF8047084F874
:10391000087101F0178704EB010C01317523FF29B1
:10392000C4F804118CF8043084F8083102F079816D
:1039300004EB010E01316E26FF29C4F804118EF844
:10394000046084F8086102F05A8104EB010C013133
:103950006E23FF29C4F804118CF8043084F8083170
:1039600002F03A8104EB010E01316127FF29C4F80E
:1039700004118EF8047084F8087102F01A8104EBC7
:10398000010C01316D20FF29C4F804118CF80400EA
:1039900084F8080102F0FA8004EB010E013165237E
:1039A000FF29C4F804118EF8043084F8083102F0BD
:1039B000DA8004EB010C01316420FF29C4F8041102
:1039C0008CF8040084F8080102F0BA8004EB010EC0
:1039D00001312027FF29C4F804118EF8047084F8FF
:1039E000087102F09A8004EB010C01317420FF2968
:1039F000C4F804118CF8040084F8080101F0E2878F
:103A000004EB010E01317923FF29C4F804118EF86B
:103A1000043084F8083101F0C28704EB010C013155
:103A20007020FF29C4F804118CF8040084F8080100
:103A300001F0A28704EB010E01316527FF29C4F8CC
:103A400004118EF8047084F8087100F090854A1C07
:103A500061182320C4F8042108AF087140F668619A
:103A600084F80801C0F608016A68384601320CF093
:103A7000BFF938460CF054FB002800F05786D4F804
:103A800004116FEA07083E183D46FF2908EB0609B6
:103A900004F1040A4FF0000809F0010915F8017B50
:103AA00002F0DF860B46013104EB030EB542C4F889
:103AB000041184F808718EF8047000F03986B9F1A9
:103AC000000F11D0FF2915F8017B02F013870B4678
:103AD000013104EB030CB542C4F8041184F80871F9
:103AE0008CF8047000F024864A1CFF290B4615F858
:103AF000017B00F0548704EB030C511CFF2AC4F82F
:103B000004218CF80470134684F8087115F8017BC1
:103B1000DFD1D4F80C315046114684F80381D4F833
:103B200010219847D4F82421012100235018C4F80B
:103B30002401CEE78B6893F800C0BCF1330F7EF40C
:103B400064AB99680A78342A7EF45FAB59682046E2
:103B500005F04AF92046696805F0B0F8AB682046E0
:103B60009968496805F040F940F648612046C0F67A
:103B70000801FEF7A5F9AA6820469368996805F040
:103B800033F9FEF73EBB496811B12046FEF742FA11
:103B9000AA68002A3EF435ABD4F80461FD2E98BF24
:103BA000D4F8248101F26B82731CA11904EB030C7D
:103BB0002022B71C84F80821C4F8047120464FF075
:103BC0002C0E81F804E08CF80420A968FEF722FA94
:103BD000D4F8240140457EF414ABD4F80401B84273
:103BE00008BFC4F80461FEF70CBBB1F90A10002944
:103BF00041F075816968D34B4A689A4208BFD4F88E
:103C0000041111D02046FEF705FAD4F80431FF2B39
:103C100002F0DE86591C04EB030E2020C4F80411C8
:103C20008EF8040084F80801B5F90830002B01F083
:103C30002780FF2903F04F8004EB010C01315F2343
:103C4000FF29C4F804118CF8043084F8083103F01B
:103C5000688004EB010C01314123FF29C4F80411F1
:103C60008CF8043084F8083103F0488004EB010C30
:103C700001316325FF29C4F804118CF8045084F83D
:103C8000085103F0748004EB010C01316323FF2918
:103C9000C4F804118CF8043084F8083103F054801F
:103CA00004EB010C01317520FF29C4F804118CF8D4
:103CB000040084F8080100F0E8844A1C61186D20B3
:103CC000C4F80421087184F80801FEF79ABA08AF15
:103CD00040F66861C0F608016A6838460CF088F85A
:103CE00038460CF01DFA00283EF48BAAD4F80411D3
:103CF0006FEA070A3E183D46FF290AEB06094FF016
:103D0000000804F1040A09F0010915F8017B02F02A
:103D100075850B46013104EB030EB542C4F804115E
:103D200084F808718EF804703EF46BAAB9F1000FA4
:103D300011D0FF2915F8017B02F0EA850B4601310D
:103D400004EB030CB542C4F8041184F808718CF834
:103D500004703EF456AA4A1CFF290B4615F8017B55
:103D600000F0FC8504EB030C511CFF2AC4F804216D
:103D70008CF80470134684F8087115F8017BDFD1C4
:103D8000D4F80C315046114684F80381D4F8102140
:103D90009847D4F82421012100235018C4F82401A5
:103DA000CEE7694E4FF0000AD4F8041104F1040B79
:103DB00006F11508A94625E04A1C6118FF2AC4F837
:103DC000042184F808610E716F7800F0DC87511CC3
:103DD000AE1C04EB020EFF29C4F8041184F808712C
:103DE0008EF80470AD7800F0E0870B46013104EBEB
:103DF000030C4645C4F8041184F808518CF80450AB
:103E000000F08D84751CFF297678D5D1D4F80C711B
:103E10005846D4F8102184F803A1B847D4F82431C7
:103E2000012200219F18C4F82471C6E7D4F80411B8
:103E3000FF2902F0F78004EB010C01317420FF2907
:103E4000C4F804118CF8040084F8080102F0D7804B
:103E500004EB010E01317920FF29C4F804118EF81A
:103E6000040084F8080102F0B78004EB010C013172
:103E70007020FF29C4F804118CF8040084F80801AC
:103E800002F0978004EB010E01316520FF29C4F890
:103E900004118EF8040084F8080102F0778004EB26
:103EA000010C01316920FF29C4F804118CF80400C9
:103EB00084F8080102F0578004EB010E01316E20F6
:103EC000FF29C4F804118EF8040084F8080102F0F8
:103ED000378004EB010C01316620FF29C4F804117E
:103EE0008CF8040084F8080102F0178004EB010E3E
:103EF00001316F20FF29C4F804118EF8040084F802
:103F0000080101F0F78504EB010C01312020FF29A5
:103F1000C4F804118CF8040084F8080101F0D78576
:103F200004EB010E01316620FF29C4F804118EF85C
:103F3000040084F8080101F0878662186E230131BD
:103F4000FEF715BE90C10708DF0D0808496891F813
:103F500000E0BEF12E0F00F0F186204604F0AEFE28
:103F60002046A96804F040FFFEF74BB9D4F81811B9
:103F70000DF1680BD4F81431002209954BF8481D57
:103F8000DA4602910391C4F818B10A920B93002902
:103F900002F040874B68187817385FFA80F8B8F15C
:103FA000020F02F237874FF001080E46A446A946D9
:103FB00005E0736818781738C2B2022A1CD8B568B1
:103FC0004FEA08141AAF3F199DB9B8F1030FA7F1D2
:103FD000480508F1010801F2FA8096E80F0085E82B
:103FE0000F0047F848AC0BEB040A0124CCF818A1E9
:103FF000B4603668002EDCD164464D46A968204680
:10400000FEF708F8029A0A99C4F8182100297EF4EC
:10401000F8A8B8F1010F2AD00BEB081708F1FF360A
:10402000204608F0010857F80C1C103F03F0F4F884
:10403000012E19D0B8F1000F08D057F80C1C2046FB
:10404000013E03F0E9F8103F012E0DD057F80C1C8B
:10405000204603F0E1F8023E57F81C1C204603F00E
:10406000DBF8203F012EF1D1D4F81801039020464F
:10407000291D039A04F08CFBFEF7C3B8D4F8041191
:10408000FF2902F02F8204EB010E01316F20FF297E
:10409000C4F804118EF8040084F8080102F00F82BD
:1040A00004EB010C01317020FF29C4F804118CF8D5
:1040B000040084F8080102F0EF8104EB010E0131E5
:1040C0006520FF29C4F804118EF8040084F8080163
:1040D00002F0CF8104EB010C01317220FF29C4F8FA
:1040E00004118CF8040084F8080102F0AF8104EB9D
:1040F000010E01316120FF29C4F804118EF804007B
:1041000084F8080102F08F8104EB010C0131742066
:10411000FF29C4F804118CF8040084F8080102F0A7
:104120006F8104EB010E01316F20FF29C4F80411E7
:104130008EF8040084F8080102F04F8104EB010CB2
:1041400001317220FF29C4F804118CF8040084F8AE
:10415000080100F08982481C61182023C4F804017A
:1041600020460B71291D84F8083104F0F5FCFEF798
:1041700048B820680026D4F8187110F0040FC4F86D
:1041800018614E6805D033781BB9B268062A02F070
:10419000E88331462046FDF73DFF94F808C1BCF1A5
:1041A0003C0F18BFD4F8041100F04987FF2902F032
:1041B000EE82481C04EB010C3C23C4F804012046A9
:1041C0008CF8043084F80831A968FDF723FF94F8CF
:1041D00008113E2918BFD4F8041100F01F87FF29E9
:1041E00002F0C3824A1C61183E20C4F80421087101
:1041F00084F80801C4F81871FEF703B8D4F8041164
:10420000FF2902F09F8204EB010C01317620FF2987
:10421000C4F804118CF8040084F8080102F07F82CD
:1042200004EB010E01316920FF29C4F804118EF856
:10423000040084F8080102F05F8204EB010C0131F4
:104240007220FF29C4F804118CF8040084F80801D6
:1042500002F03F8204EB010E01317420FF29C4F803
:1042600004118EF8040084F8080102F01F8204EBA8
:10427000010C01317520FF29C4F804118CF80400E9
:1042800084F8080102F0FF8104EB010E0131612086
:10429000FF29C4F804118EF8040084F8080102F024
:1042A000DF8104EB010C01316C20FF29C4F80411FB
:1042B0008CF8040084F8080102F0BF8104EB010EC1
:1042C00001312020FF29C4F804118EF8040084F87D
:1042D000080102F09F8104EB010C01317420FF29D9
:1042E000C4F804118CF8040084F8080102F07F81FE
:1042F00004EB010E01316820FF29C4F804118EF887
:10430000040084F8080102F05F8104EB010C013124
:104310007520FF29C4F804118CF8040084F8080102
:1043200002F03F8104EB010E01316E20FF29C4F839
:1043300004118EF8040084F8080102F01F8104EBD8
:10434000010C01316B20FF29C4F804118CF8040022
:1043500084F8080102F0FF8004EB010E01312020F7
:10436000FF29C4F804118EF8040084F8080102F053
:10437000DF8004EB010C01317420FF29C4F8041123
:104380008CF8040084F8080102F0BF8062186F23E3
:104390000131FEF745B8D4F80411FF2901F0BE87BA
:1043A00004EB010801316F27FF29C4F8041188F8D4
:1043B000047084F8087101F09E8704EB010C013150
:1043C0007020FF29C4F804118CF8040084F8080157
:1043D00001F07E8704EB010801316523FF29C4F851
:1043E000041188F8043084F8083101F05E8704EB8A
:1043F000010C01317220FF29C4F804118CF804006B
:1044000084F8080101F0348604EB010801316127CA
:10441000FF29C4F8041188F8047084F8087101F0C9
:10442000148604EB010C01317420FF29C4F8041137
:104430008CF8040084F8080101F0D78404EB01082B
:1044400001316F23FF29C4F8041188F8043084F87F
:10445000083100F0C2804A1C04EB010C7223C4F83E
:10446000042184F808318CF804306B685F68387870
:104470006138C1B219290ED8FF2A02F0578304EB24
:1044800002082020013284F8080188F80400C4F8EA
:1044900004216B685F68D3F80880B8F1000F3DF421
:1044A000B0AED4F8041108F1FF394FF0000A04F15E
:1044B000040BFF2909F001093E7802F0F4810B4654
:1044C00001310125E218A845C4F80411167184F8D9
:1044D00008613DF496AEB9F1000F11D0FF297E5D61
:1044E00002F01D820B460131013504EB030CA84597
:1044F000C4F804118CF8046084F808613DF481AEBE
:10450000FF290B467E5D01F1010200F0388204EBC9
:10451000030C0135511CFF2AC4F8042113468CF802
:10452000046084F808617E5DDED111465846D4F8F7
:104530000C31D4F8102184F803A19847D4F8242131
:10454000012100235018C4F82401CDE7D4F80C3120
:10455000201DD4F8102184F803A19847D4F8240131
:1045600001230021C218C4F82421FEF731BD002622
:10457000201DD4F8102184F80361D4F80C31984739
:10458000D4F8247101223146B818C4F82401FFF789
:104590005FBA0026201DD4F80C31D4F8102184F81D
:1045A00003619847D4F82421012031461318C4F838
:1045B0002431FEF7C5B90026D4F80C71D4F81021C7
:1045C000201D84F80361B847D4F824310122314614
:1045D0009F18C4F82471FEF7D3B80026201DD4F824
:1045E000102184F80361D4F80C71B847D4F8243151
:1045F000012231469818C4F824012DE70026201D19
:10460000D4F8102184F80361D4F80C71B847D4F8B9
:104610002431012031461A18C4F82421FEF790B83D
:104620000026201DD4F80C31D4F8102184F8036141
:104630009847D4F82421012031461318C4F82431B6
:10464000FDF7C6BF0026D4F80C31D4F81021201D88
:1046500084F803619847D4F8247101223146BB18CD
:10466000C4F82431FEF760BF0026201DD4F80C31B9
:10467000D4F8102184F803619847D4F8242101204C
:1046800031461318C4F8243166E50025201DD4F8FE
:104690000C31D4F8102184F803519847D4F8243110
:1046A000012229469818C4F82401FFF707BB55F8E2
:1046B000089CA5F11008013EB9F1000F12D1D4F801
:1046C0000411FF2902F0138504EB010E84F8087130
:1046D000013120468EF80470C4F8041155F80C1C02
:1046E00002F09AFD58F8085C013E95B9D4F804111F
:1046F000FF2902F00C8504EB010E4D1C84F80871B3
:1047000020468EF80470C4F8045158F80C1C02F0CE
:1047100083FDA8F11005002EC9D1FFF7CDB82046C2
:10472000D9F80410FDF776FCFDF76BBDD4F8041141
:10473000FF2900F002814A1C04EB010E7D20C4F821
:1047400004218EF8040084F80801FDF75ABDD4F85E
:104750000411FF2900F0878504EB010C01312C20A6
:10476000FF29C4F804118CF8040084F808010AD069
:104770004B1C04EB010EC4F8043184F808918EF848
:104780000490FEF709BCD4F80C31201DD4F8102198
:1047900084F803A19847D4F8240101230021C2180A
:1047A000C4F82421E5E7D4F80C310022201D84F858
:1047B0000321D4F810219847D4F824010121722252
:1047C00043182271C4F82431FDF731BED4F80C31FE
:1047D0000020D4F8102184F80301201D9847D4F854
:1047E000243101216F2258182271C4F82401FEF7E8
:1047F000EDB9D4F80C310020D4F8102184F803016D
:10480000201D9847D4F824310121662258182271BE
:10481000C4F82401FEF7CDB9D4F80C310020D4F847
:10482000102184F80301201D9847D4F82431012178
:10483000202258182271C4F82401FEF7ADB91146A0
:104840005846D4F80C31D4F8102184F803A19847C5
:10485000D4F82401012100234218C4F82421FEF7D2
:10486000D3B911465846D4F80C31D4F8102184F845
:1048700003A19847D4F82421012100235018C4F83B
:104880002401FDF7DCBE11465846D4F80C31D4F8AB
:10489000102184F803A19847D4F8240101210023B2
:1048A0004218C4F82421FEF7F1BB11465846D4F84B
:1048B0000C31D4F8102184F803A19847D4F82401CE
:1048C000012100234218C4F82421FEF7A3BB11469E
:1048D0005846D4F80C31D4F8102184F803A1984735
:1048E000D4F82401012100234218C4F82421FEF742
:1048F000D6B911465846D4F80C31D4F8102184F8B2
:1049000003A19847D4F82401012100234218C4F8D8
:104910002421FEF75BBC11465846D4F80C31D4F87C
:10492000102184F803A19847D4F824210121002301
:104930005018C4F82401FEF7B7BC0025201DD4F898
:104940000C31D4F8102184F803519847D4F824315D
:10495000012229469818C4F82401EDE6D4F80C3158
:104960005046D4F8102184F803819847D4F82401E4
:10497000012200238118C4F82411FFF7F3B9D4F8F9
:104980000C315846D4F8102184F803A19847D4F884
:104990002401012200238118C4F82411B7E5D4F8BA
:1049A0000C315046D4F8102184F803819847D4F88C
:1049B0002411012200238818C4F82401FFF79BB8B2
:1049C000D4F80C315046D4F8102184F8038198476C
:1049D000D4F82411012200238818C4F82401FDF71B
:1049E00022BFD4F80C315046D4F8102184F803814A
:1049F0009847D4F82411012200238818C4F8240110
:104A0000FEF7E5BDD4F80C315846D4F8102184F8EF
:104A100003A19847D4F82401012200238118C4F887
:104A20002411FEF748BA4E688F68F719BE42BDF4EC
:104A3000E8AB4FF0000904F1040ABA1B032AD8BFFF
:104A4000357802DD35785F2D0FD00136D4F80411AA
:104A5000FF2961D04B1C6118C4F8043184F8085157
:104A60000D71B742E9D8FDF7CCBB7078711C5F2897
:104A700001D00E46EAE7B378552BFAD1F31C9F42DA
:104A8000F7D96FEA030C002007EB0C081A4618F060
:104A9000010F1AD01B789046321DA3F130065FFA41
:104AA00086FCBCF1090F42F2B182A3F1410C5FFA1E
:104AB0008CF6052E42F2C082A3F1610C5FFA8CF6EF
:104AC000052E02F2E982573B1846904612F8013B48
:104AD000A3F130065FFA86FCBCF1090F98BF33469C
:104AE00007D9A3F1410C5FFA8CF6052E01F2EC8692
:104AF000373BBA42BDD0904603EB001012F8013BA1
:104B0000A3F130065FFA86FCBCF1090F00F24D8379
:104B1000334603EB0010D8E7D4F80C315046D4F8F4
:104B2000102184F803919847D4F82401012300212F
:104B3000C218C4F824218EE74A68D2F80C8097681E
:104B4000B8F1000F3DF45DABD4F8041108F1FF3B60
:104B50004FF0000904F1040AFF290BF0010B3E7825
:104B600002F007800B4601310125E218A845C4F880
:104B70000411167184F808613DF443ABBBF1000FDA
:104B800011D0FF297E5D02F00A810B46013101350B
:104B900004EB030CA845C4F804118CF8046084F8F5
:104BA00008613DF42EABFF290B467E5D01F1010249
:104BB00000F0858104EB030C0135511CFF2AC4F879
:104BC000042113468CF8046084F808617E5DDED110
:104BD00011465046D4F80C31D4F8102184F80391D2
:104BE0009847D4F82421012100235018C4F8240147
:104BF000CDE7D9F804102046FDF70CFAD4F80411DB
:104C00004D46FF2900F0A98404EB010E01312D204F
:104C1000FF29C4F804118EF8040084F8080100F09C
:104C2000898404EB010C01316920FF29C4F80411C7
:104C30008CF8040084F8080101F02C8004EB010ECC
:104C400001316E20FF29C4F804118EF8040084F8A5
:104C5000080104D0481C62182D23FEF70DBC002665
:104C6000201DD4F80C31D4F8102184F80361984742
:104C7000D4F82421012031461318C4F82431EAE77E
:104C8000FF2901F0998704EB010C01315F22FF2914
:104C9000C4F804118CF8042084F8082101F07A8704
:104CA00004EB010C01314620FF29C4F804118CF8F3
:104CB000040084F8080101F0A48704EB010C013121
:104CC0007220FF29C4F804118CF8040084F808014C
:104CD00001F0848704EB010C01316120FF29C4F845
:104CE00004118CF8040084F8080101F0D08704EB6B
:104CF000010C01316320FF29C4F804118CF8040071
:104D000084F8080109D04A1C61187420C4F80421F1
:104D1000087184F80801FDF774BA0025201DD4F845
:104D20000C31D4F8102184F803519847D4F8243179
:104D3000012229469818C4F82401E5E7D4F80411A3
:104D4000FF2901F0828704EB010C28204B1C84F81A
:104D500008018CF804002046C4F804316968043165
:104D600003F0FAFED4F80411FF2901F05D8704EB8B
:104D7000010E2920013184F808018EF80400C4F8DE
:104D80000411FFF7EDB811465846D4F8102184F805
:104D900003A1D4F80C319847D4F824010121002252
:104DA0004618C4F82461FFF713B85846D4F80C31FC
:104DB000D4F8102184F803A19847D4F824010121E4
:104DC00000234218C4F82421FFF711B8266806F022
:104DD0002006FEF7D6BA0121002A0CBF0A4641F090
:104DE0000102002A7DF411AA596800293DF40DAA98
:104DF0000B782B2B00F0838132682046C4F81421F5
:104E0000FDF708F9C4F81461FDF7FBB92046043139
:104E100005F10802D4F8183103F0A8FDFEF781BAB5
:104E2000D4F80C315046D4F8102184F803919847F7
:104E3000D4F82411012200238818C4F82401FDF7B6
:104E4000C6BDD4F80C315046D4F8102184F8039133
:104E50009847D4F82401012200238118C4F82411B2
:104E6000FDF71CBAD4F80411FF2902F0758004EB99
:104E7000010E01313A20FF29C4F804118EF8040014
:104E800084F808010BD04A1C04EB010C3A20C4F84A
:104E900004218CF8040084F80801FDF719BBD4F84C
:104EA0000C31201DD4F8102184F803619847D4F800
:104EB0002431012231469818C4F82401E4E7D4F8DB
:104EC0000C315046D4F8102184F803919847D4F857
:104ED0002411012200238818C4F824016AE6D4F8BA
:104EE0000411FF2901F0EE8704EB010C01315F236F
:104EF000FF29C4F804118CF8043084F8083102F05A
:104F0000078004EB010C01315323FF29C4F804117D
:104F10008CF8043084F8083101F0E78704EB010CC9
:104F200001316123FF29C4F804118CF8043084F89E
:104F3000083101F0A38704EB010C01317423FF2930
:104F4000C4F804118CF8043084F8083109D04A1CE4
:104F500061182020C4F80421087184F80801FEF7C4
:104F600049BE0026201DD4F80C31D4F8102184F855
:104F700003619847D4F82401012231468318C4F80C
:104F80002431E5E75068067C002E3DF476AA062E13
:104F900041F24385072E7DF470AA8A6811780029B2
:104FA0007DF46BAA906801287DF467AA352B7DF407
:104FB00064AA52681378302B02F0EF80312B7DF415
:104FC0005CAA40F660612046C0F60801FCF778FF55
:104FD000FDF717B9D4F80411FF2901F0AC8704EBF1
:104FE000010C5B20013184F808018CF80400204694
:104FF000C4F80411A968FDF70DF8D4F80411FF29CD
:1050000001F0A68504EB010E5D20013184F8080152
:105010008EF80400C4F80411FDF7F3B8D4F80411B5
:10502000FF2901F0AB8704EB010E2020013184F849
:1050300008018EF80400C4F80411FFF7D0B8D4F8C2
:105040000411FF2901F02D8704EB010E202201310C
:1050500084F808218EF80420C4F80411FFF7A6B8DC
:10506000FF2901F0FA8604EB010E2D20013184F8AE
:1050700008018EF80400C4F80411FDF726BA04EB09
:10508000060800273146D4F80C3188F80470201D3A
:10509000D4F810213E469847D4F8247107F101084E
:1050A000C4F82481FEF780BDD4F80411FF2901F073
:1050B000C28604EB010E01312C23FF29C4F8041130
:1050C0008EF8043084F8083109D04B1C6118C4F8FC
:1050D000043184F8089181F80490FDF740BF201D49
:1050E000D4F8102184F803A1D4F80C51A847D4F8BF
:1050F000240101235146C218C4F82421E6E7D4F85C
:105100002031002B41F3DB848968013B03F001026D
:10511000002901F0D48491F800C0BCF12B0F7DF47C
:1051200074A8002B01F0D1843AB18968013BA1B980
:1051300001F0C5BC002B01F0C8848968013B00293F
:1051400001F0BD8491F800C0013BBCF12B0F7DF450
:105150005CA88968002901F0B2840A782B2AE9D07A
:10516000FDF753B8D4F80411FF2901F0538704EB7D
:10517000010C01312C20FF29C4F804118CF8040023
:1051800084F808017DF423AFD4F80C31201DD4F845
:10519000102184F803A19847D4F824012B4600215C
:1051A000421CC4F82421FDF713BFA3F1410C5FFAA0
:1051B0008CF6052E41F29283A3F1610C5FFA8CF616
:1051C000052E01F26987573B03EB00107DE40121B6
:1051D000CCF81C11FDF715B80026201DD4F80C31B1
:1051E000D4F8102184F803619847D4F824210120D1
:1051F00031461318C4F82431FEF73CB90025201DB0
:10520000D4F80C31D4F8102184F803519847D4F81D
:105210002431012229469818C4F82401FDF7EBB97E
:105220000026201DD4F80C31D4F8102184F8036135
:105230009847D4F8242101233146D018C4F824011A
:10524000FEF7B9B840F698513846C0F608010AF0A2
:105250001BFE002841F09D85AA682046916803F056
:10526000C3FDFCF7B1BF201DD4F80C31D4F81021D8
:1052700084F803A19847D4F8240101212C22431873
:105280002271C4F82431FFF773BA201DD4F80C3111
:10529000D4F8102184F803A19847D4F824310121CF
:1052A0002C2258182271C4F82401FDF790BED4F8BE
:1052B0000C310022201D84F80321D4F810219847D6
:1052C000D4F824010121652243182271C4F8243145
:1052D000FDF7ADB8D4F80C310020D4F8102184F8D3
:1052E0000301201D9847D4F8243101216322581866
:1052F0002271C4F82401FDF790B8D4F80C310020D5
:10530000D4F8102184F80301201D9847D4F82431E3
:105310000121722258182271C4F82401FDF770B8D7
:10532000D4F80C310020D4F8102184F80301201D9A
:105330009847D4F824310121752258182271C4F8F5
:105340002401FDF750B8D4F80C310020D4F8102116
:1053500084F80301201D9847D4F8243101216F22DD
:1053600058182271C4F82401FDF730B8D4F80C3174
:105370000020D4F8102184F80301201D9847D4F8A8
:1053800024310121732258182271C4F82401FDF739
:1053900010B8D4F80C310020D4F8102184F803019F
:1053A000201D9847D4F82431012165225818227114
:1053B000C4F82401FCF7F0BFD4F80C310020D4F875
:1053C000102184F80301201D9847D4F824310121CD
:1053D000722258182271C4F82401FCF7D0BFD4F807
:1053E0000C610020D4F8102184F80301201DB0477F
:1053F000D4F824210121612356182371C4F82461B3
:10540000FDF7DCBCD4F80C310022201D84F8032108
:10541000D4F810219847D4F8240101216C224318B4
:105420002271C4F82431FDF7BCBCD4F80C31002241
:10543000201D84F80321D4F810219847D4F82401C2
:105440000121432243182271C4F82431FDF79CBC8A
:10545000D4F80C310022201D84F80321D4F8102147
:105460009847D4F824010121202243182271C4F85E
:105470002431FDF77CBCD4F80C310022201D84F8C7
:105480000321D4F810219847D4F824010121612286
:1054900043182271C4F82431FDF75CBCD4F80C31F8
:1054A0000022201D84F80321D4F810219847D4F855
:1054B00024010121762243182271C4F82431FDF71A
:1054C0003CBCD4F80C310022201D84F80321D4F810
:1054D00010219847D4F82401012161224318227138
:1054E000C4F82431FDF71CBCD4F80C310022201D77
:1054F00084F80321D4F810219847D4F8240101211D
:105500006A2243182271C4F82431FDF7FCBBD4F899
:105510000C310020D4F8102184F80301201D984795
:10552000D4F8242101216A2053182071C4F82431B1
:10553000FCF7E4BED4F80C310022201D84F80321CE
:10554000D4F810219847D4F8240101216922431886
:105550002271C4F82431FFF771BBD4F80C3100225A
:10556000201D84F80321D4F810219847D4F8240191
:1055700001212D2243182271C4F82431FFF751BBB9
:105580005846D4F80C31D4F8102184F803A1984778
:10559000D4F82421012153465018C4F82401FDF702
:1055A0006ABED4F80C310022201D84F80321D4F8FF
:1055B00010219847D4F82401012173224318227145
:1055C000C4F82431FDF7D0BAD4F80C310022201DE4
:1055D00084F80321D4F810219847D4F8240101213C
:1055E000742243182271C4F82431FDF711BFD4F896
:1055F0000C310022201D84F80321D4F81021984793
:10560000D4F824010121762243182271C4F82431F0
:10561000FDF7F1BED4F80C310022201D84F80321DF
:10562000D4F810219847D4F824010121722243189C
:105630002271C4F82431FDF782B9D4F80C3100226C
:10564000201D84F80321D4F810219847D4F82401B0
:1056500001216F2243182271C4F82431FDF762B989
:10566000D4F80C310022201D84F80321D4F8102135
:105670009847D4F824010121742243182271C4F8F8
:105680002431FDF742B9D4F80C310022201D84F8F2
:105690000321D4F810219847D4F824010121612274
:1056A00043182271C4F82431FDF722B9D4F80C3123
:1056B0000022201D84F80321D4F810219847D4F843
:1056C00024010121722243182271C4F82431FDF70C
:1056D00002B9D4F80C310022201D84F80321D4F83B
:1056E00010219847D4F82401012165224318227122
:1056F000C4F82431FDF7E2B8D4F80C310022201DA3
:1057000084F80321D4F810219847D4F8240101210A
:10571000702243182271C4F82431FDF7C2B8D4F8BE
:105720000C310022201D84F80321D4F81021984761
:10573000D4F8240101216F2243182271C4F82431C6
:10574000FDF7A2B80020D4F8102184F80301201D31
:10575000D4F80C319847D4F82471012175227E18B1
:105760002271C4F82461FEF7E3B80020D4F81021B8
:1057700084F80301201DD4F80C71B847D4F8243103
:1057800001217B2258182271C4F82401FEF7C3B806
:105790000026201D84F80361D4F81021D4F80C31C0
:1057A0009847D4F824010121692246182271C4F8CF
:1057B0002461FDF764B9D4F80C310020D4F810212D
:1057C00084F80301201D9847D4F82421012168237F
:1057D00050182371C4F82401FDF744B9D4F80C31F2
:1057E0000022201D84F80321D4F810219847D4F812
:1057F000240101216E2243182271C4F82431FDF7DF
:1058000072B9D4F80C310022201D84F80321D4F899
:1058100010219847D4F824010121652243182271F0
:10582000C4F82431FDF752B90022201D84F8032169
:10583000D4F80C31D4F810219847D4F82401012170
:1058400026714218C4F82421FDF733B9D4F80C317D
:105850000020D4F8102184F80301201D9847D4F8C3
:1058600024310121642258182271C4F82401FDF763
:1058700013B9D4F80C310022201D84F80321D4F888
:1058800010219847D4F8240101216922431822717C
:10589000C4F82431FDF75BB9D4F80C310022201D87
:1058A00084F80321D4F810219847D4F82401012169
:1058B0006C2243182271C4F82431FDF73BB9D4F8A7
:1058C0000C310022201D84F80321D4F810219847C0
:1058D000D4F824010121612243182271C4F8243133
:1058E000FDF71BB9D4F80C310022201D84F80321E8
:1058F000D4F810219847D4F824010121202243181C
:105900002271C4F82431FDF7FBB8D4F80C31002023
:10591000D4F8102184F80301201D9847D4F82421DD
:105920000121732350182371C4F82401FDF727B90E
:10593000D4F80C310022201D84F80321D4F8102162
:105940009847D4F824010121612243182271C4F838
